:1000000023C100000C9468180C9499180C94CA1819
:100010000C94FB180C942C190C945D190C948E19EB
:100020000C94BF1942C1000040C100003EC1000055
:100030003CC100000C949C2038C1000036C1000077
:1000400034C1000032C1000030C100002EC10000E8
:100050002CC100002AC1000028C100000C94F01936
:1000600024C100000C94DB1C0C94111D1EC1000067
:100070001CC100001AC1000018C1000016C1000018
:100080000C94AB1612C1000010C100000EC100009C
:100090000C947D1D0C94B31D08C1000006C1000026
:1000A00004C1000002C1000000C10000FEC0000049
:1000B000FCC00000FAC00000F8C00000F6C000005C
:1000C000F4C00000F2C000000C94FC200C941F1E31
:1000D0000C94551EEAC000000C94C11E0C94F71E2F
:1000E000E4C000001007AC080F0911090708380820
:1000F000D106F106B506EE08DD08EA081109110976
:100100001109A00642180C18141820182D184E18A2
:100110005B18FD1A001BEF1AF31AF91A371B041BA0
:10012000081B0E1B121B161B1C1B201B241B371B22
:100130002A1B2E1B321B00000A0B02090C0D0E0895
:1001400007030401000000000000000000000000A0
:10015000000000000000000000000000000000009F
:10016000000012111000000000000000000000005C
:10017000000000000000000000000000010210204C
:1001800020080810204010204080020102010804CD
:100190000201010204081020408080402010080461
:1001A00002018004020180402010080402010804BA
:1001B00002010102040810204080010204081020FE
:1001C0004080050505050705080808080202020227
:1001D0000A0A0808040404040101010101010101E3
:1001E0000303030303030303040707070C0C0C0CAE
:1001F0000C0C0C0C02020202060606060606060697
:100200000B0B0B0B0B0B0B0B000022002500280027
:100210002B002E003100340002010000050108010E
:100220000B0100002100240027002A002D003000CF
:10023000330001010000040107010A0102003A1D18
:10024000DC1D7E1E201F9A1F11241FBECFEFD1E29E
:10025000DEBFCDBF00E00CBF13E0A0E0B2E0ECEAEF
:10026000FAE500E00BBF02C007900D92A23EB10775
:10027000D9F727E0A2EEB3E001C01D92A23DB2077C
:10028000E1F712E0C8E4D2E000E006C022970109DD
:10029000FE010BBF0E94E72BCE33D10780E0080799
:1002A000A9F70E941D290C94542DAACE4F925F925B
:1002B0006F927F928F929F92AF92BF92CF92DF9276
:1002C000EF92FF92CF93DF9300D01F92CDB7DEB7AE
:1002D0008090CA079090CB07A090CC07B090CD0734
:1002E000C501B4010E949E2A2B013C012091AA0263
:1002F0003091AB024091AC025091AD020E94FF29B7
:1003000087FF0BC0B7FC09C0C090A202D090A30227
:10031000E090A402F090A50203C0C12CD12C76017C
:1003200020E030E040E85FE36091A6027091A70210
:100330008091A8029091A9020E949A299B01AC0188
:10034000C301B2010E944E2B87FD09C01092CA075B
:100350001092CB071092CC071092CD070DC08FEFF3
:10036000881A980AA80AB80A8092CA079092CB07FE
:10037000A092CC07B092CD072091B2023091B30287
:100380004091B4025091B502C701B6010E949A296A
:100390006093A4077093A5078093A6079093A7077F
:1003A00064EB77E088EA97E00E94FF162091A807A7
:1003B0003091A9074091AA075091AB076091A4071B
:1003C0007091A5078091A6079091A7070E949A298E
:1003D0006B017C0120918A0230918B0240918C024A
:1003E00050918D020E94522B2091C6073091C70771
:1003F0004091C8075091C9070E949A2920919602FE
:100400003091970240919802509199020E94522B8C
:100410002B013C0120919A0230919B0240919C0259
:1004200050919D02C701B6010E94522B2091C20734
:100430003091C3074091C4075091C5070E949B2982
:10044000A30192010E949B294B015C0180919E02B5
:1004500090919F02A091A002B091A10289839A83FA
:10046000AB83BC839C01AD01C501B4010E944E2B3E
:100470001816A4F08091920290919302A091940298
:10048000B091950289839A83AB83BC839C01AD01B3
:10049000C501B4010E94FF2987FF0DC089819A819F
:1004A000AB81BC818093AC079093AD07A093AE075E
:1004B000B093AF0708C08092AC079092AD07A092AE
:1004C000AE07B092AF072091C6023091C7024091AB
:1004D000C8025091C9026091AC077091AD0780913C
:1004E000AE079091AF070E949B296093B00770936D
:1004F000B1078093B2079093B30768EB77E080EB86
:1005000097E00E946B1764EB77E088EA97E00E941F
:100510001E1720918E0230918F02409190025091CF
:100520009102C701B6010E94522B2091B602309170
:10053000B7024091B8025091B9020E94522B9B0120
:10054000AC016091C2077091C3078091C40790917C
:10055000C5070E949B296093C2077093C3078093CD
:10056000C4079093C5072091BE023091BF0240910D
:10057000C0025091C102C301B2010E94522B9B01E3
:10058000AC016091C6077091C7078091C807909130
:10059000C9070E949B296093C6077093C707809381
:1005A000C8079093C90768EB77E080EB97E00E945B
:1005B000BB1781E090E00E94E915409193075091AC
:1005C0009407609195077091960780E090E00E94F3
:1005D000E51580909F079090A007A090A107B0908C
:1005E000A20720E030E040E85FEBC501B4010E94C3
:1005F000FF29882331F1C0909307D0909407E090B1
:100600009507F0909607A7019601C501B4010E94D5
:100610009A294B015C0120E030E040E054E3C7013F
:10062000B6010E94522B9B01AC01C501B4010E948E
:100630004E2B181634F083ED92E090937E07809352
:100640007D078091A307882331F083ED92E090939A
:100650007E0780937D07609197077091980780913E
:10066000990790919A076F5F7F4F8F4F9F4F6093CD
:100670009707709398078093990790939A070E9421
:100680009C2A20919B0730919C0740919D07509197
:100690009E070E94522B6093930770939407809358
:1006A0009507909396070F900F900F900F90DF9102
:1006B000CF91FF90EF90DF90CF90BF90AF909F9041
:1006C0008F907F906F905F904F900895CF93DF93BE
:1006D00087E2EDE7F7E0DF011D928A95E9F780E018
:1006E00090E0A0E8BFEB80939F079093A007A093B2
:1006F000A107B093A2078DEC9CECACE4BDE3809322
:100700009B0790939C07A0939D07B0939E07E1E8F9
:10071000F7E08BED9DE9A7E3B1E880839183A283A5
:10072000B3838EE29FE4A4E1BDEA809385079093B2
:100730008607A0938707B093880782E899E4A0E82A
:10074000B4E48093890790938A07A0938B07B093B2
:100750008C0788EB93E0A5E2B6EB80938D0790932E
:100760008E07A0938F07B0939007A6EFB3E0B093E6
:100770008007A0937F0784EF93E08D939C9383E59C
:1007800093E09093F5038093F403A1E9B7E0B0936D
:10079000FB03A093FA03F093F903E093F80383E9D2
:1007A00097E09093FD038093FC0380E1E4EAF7E097
:1007B000EF0119928A95E9F78AE1E4EBF7E0EF019E
:1007C00019928A95E9F7E2EEF3E082E1EF011992DE
:1007D0008A95E9F7ED93FC938EE090E09183808316
:1007E0008EE692E09093E5038093E40382E592E045
:1007F0009093E7038093E60386E292E09093E90307
:100800008093E8038AE092E09093EB038093EA03FD
:100810008091BA029091BB02A091BC02B091BD023E
:100820008093C2079093C307A093C407B093C507F2
:100830008091C2029091C302A091C402B091C502FE
:100840008093C6079093C707A093C807B093C907C2
:10085000DF91CF9108950895CF93DF93CDB7DEB7A1
:100860002A970FB6F894DEBF0FBECDBFAC01CB0107
:1008700060E070E049835A836B837C83AA2797FDED
:10088000A095BA2F8D839E83AF83B8879E01275F83
:100890003F4FAE014F5F5F4F68E070E0809107040B
:1008A000909108040E942828811108C081E02985C0
:1008B0003A852830310519F480E001C081E02A969C
:1008C0000FB6F894DEBF0FBECDBFDF91CF91089574
:1008D0000F931F93CF93DF931F921F92CDB7DEB775
:1008E0008B019E012F5F3F4FAC01809107049091D7
:1008F00008040E942828811108C081E029813A81DA
:100900002017310719F480E001C081E00F900F90AB
:10091000DF91CF911F910F910895CF93DF93EC0159
:1009200010920B0410920A04AC0160E070E0CB015D
:100930000E94F90FAE0161E070E080E090E00E945B
:10094000F90F8091070490910804DF91CF910C94E6
:100950007728EF92FF920F931F93CF93DF931F920D
:100960001F92CDB7DEB78C018091050490910604EB
:1009700080179107B4F580910304909104040097C7
:1009800031F00E94AC2C1092060410920504C801AC
:100990000E94142C9093040480930304892B19F46F
:1009A000E12CF12C18C0109306040093050419C023
:1009B00022E034E0AE014F5F5F4F61E070E0809174
:1009C0000704909108040E946927811107C089815A
:1009D0009A81E80EF91EE016F10654F380E090E0EB
:1009E0001FC0E12CF12C2091030430910404E01687
:1009F000F106ACF42E0D3F1DAE014F5F5F4FB80105
:100A00006E197F0980910704909108040E9469275C
:100A10008111E4CF89819A81E80EF91EE4CFC901E2
:100A20000F900F90DF91CF911F910F91FF90EF905A
:100A300008950F931F93CF93DF93EB018A010CDF8F
:100A400081110AC00115110539F0BE01C801DF91FD
:100A5000CF911F910F913CCFDF91CF911F910F91BB
:100A60000895CF92DF92EF92FF92CF93DF93CDB7AD
:100A7000DEB728970FB6F894DEBF0FBECDBF6B016F
:100A8000E12CF12CC982DA82EB82FC822D833E8339
:100A90004F835887AE014F5F5F4F68E070E0C9DF5A
:100AA00028960FB6F894DEBF0FBECDBFDF91CF9171
:100AB000FF90EF90DF90CF9008950F931F93CF9307
:100AC000DF93EC018B010E946527909308048093CB
:100AD0000704009741F0A801BE010E94EA26EC013C
:100AE000009719F40CC0C6E5D3E0809107049091FB
:100AF00008040E9468271092080410920704CE018F
:100B0000DF91CF911F910F910895809107049091EB
:100B100008040C9462276F927F928F929F92AF92FB
:100B2000BF92CF92DF92EF92FF920F931F93CF93DA
:100B3000DF9300D000D0CDB7DEB76B017C014A0156
:100B400080910B04882309F441C09401B701A601E8
:100B5000CE0101960E94881489819A81181619067F
:100B6000ACF5A12CB12C00E010E089819A81081726
:100B700019075CF76B807C806A0C7B1CF301608139
:100B8000718182819381A4DE81111EC0F301648191
:100B90007581161617062CF48681978199DE8111CE
:100BA00013C0C801880F991FED81FE81E80FF91F5E
:100BB000B701A601808191810E942B100F5F1F4F0A
:100BC000F8E0AF0EB11CD1CFC401A7DE26960FB658
:100BD000F894DEBF0FBECDBFDF91CF911F910F9173
:100BE000FF90EF90DF90CF90BF90AF909F908F904D
:100BF0007F906F900895CF93DF93EC01AC0160E09C
:100C000070E0CB0188DFAE0161E070E080E090E051
:100C1000DF91CF9180CFCF9380910704909108040A
:100C20000E94C626C82F811109C060E070E0CB0188
:100C300066D561E070E080E090E061D58C2FCF91C7
:100C400008950F931F9389019A01AB01BC01809114
:100C50000704909108040E9476281F910F9108952F
:100C60004F925F926F927F928F929F92AF92BF92BC
:100C7000CF92DF92EF92FF920F931F93CF93DF9368
:100C8000CDB7DEB766970FB6F894DEBF0FBECDBF07
:100C90004C015B018A0180910B04882369F08091EB
:100CA0000B04882309F4BDC21A821982E12CF12CAD
:100CB00078E0C72ED12C14C06BE074E0809107045B
:100CC000909108040E94C8268111ABC2E8CFE20EC1
:100CD000F31EE114F104D9F088E0E816F104BCF445
:100CE00029E030E02C0F3D1F2E0D3F1DAE014F5F60
:100CF0005F4FB6016E197F09809107049091080437
:100D00000E94692729813A81882309F388C2121633
:100D100013060CF086C280910A04811104C0198662
:100D20001A861B861C8689859A85AB85BC85803191
:100D3000910508F076C2FC01EE58FF4F0C94D72BBA
:100D4000D4011696ED91FC91179780819181A28133
:100D5000B38189839A83AB83BC83AE014F5F5F4FBE
:100D600064E070E085E190E06CC18D859E85F1DDE9
:100D7000009731F42FEF3FEFA90161E070E00EC062
:100D8000FC01C080D180E280F380A501C701B601DB
:100D90000E94AE0FA701960160E070E08DE190E047
:100DA0003CC28D859E85D5DD009721F42FEF3FEF66
:100DB000A9010FC0DC01CD90DD90ED90FD90AD015B
:100DC00097018601B501C401B0D5A701960188231A
:100DD00019F061E070E002C060E070E08BE190E04B
:100DE0001CC28D859E85B5DD009721F42FEF3FEF66
:100DF000A9010EC0FC01C190D190E190F190BF011A
:100E0000A7019601C40186D7A7019601882319F08E
:100E100061E070E002C060E070E08CE190E0FDC154
:100E2000D4011496ED91FC911597E080F180F701C3
:100E300002811381A080B18060E1462E512C612C8B
:100E4000712C49825A826B827C8288E090E0A0E01B
:100E5000B0E08D839E83AF83B8879E012F5E3F4FA6
:100E6000AE014F5F5F4F68E070E0809107049091A2
:100E700008040E942828882319F0E12CF12CAEC028
:100E800089899A890897C9F7D701CD90DC90B8E095
:100E9000CB0ED11CCC0CDD1CCC0CDD1CC6010E9481
:100EA000142C7C01009749F349825A826B827C8220
:100EB000C601AA2797FDA095BA2F8D839E83AF8385
:100EC000B8879E012F5E3F4FAE014F5F5F4F68E0D6
:100ED00070E080910704909108040E9428288111F5
:100EE0007DC089899A89089709F078C0D401129643
:100EF000ED91FC9113974081518162817381D701FB
:100F00004D935D936D937C931397448155816681D6
:100F1000778114964D935D936D937C9317974085DD
:100F200051856285738518964D935D936D937C937F
:100F30001B9784859585A685B785F7018487958756
:100F4000A687B787108A118A128A138A84E090E0F4
:100F5000A0E0B0E0848B958BA68BB78B8091CC0200
:100F60009091CD02A0E0B0E0808F918FA28FB38FDF
:100F7000C501AA2797FDA095BA2F848F958FA68FBC
:100F8000B78FB801A701405E5F4F20E030E02A151F
:100F90003B057CF4DB018D919D91BD01A0E0B0E0AB
:100FA000FA0181939193A193B193AF012F5F3F4FCA
:100FB000EECF9E012F5E3F4FA701B601809107043F
:100FC000909108040E942828811108C089899A8973
:100FD0008C159D0519F481E080930A04C70166967B
:100FE0000FB6F894DEBF0FBECDBFDF91CF911F913A
:100FF0000F91FF90EF90DF90CF90BF90AF909F90B8
:101000008F907F906F905F904F900C94AC2C8D855B
:101010009E85AF85B8890097A105B10529F199DCB6
:10102000009789F481E090E0A0E0B0E089839A83A2
:10103000AB83BC83AE014F5F5F4F64E070E082E141
:1010400090E0F7DCEEC0BC01C401ACD219821A8278
:101050001B821C82AE014F5F5F4F64E070E082E153
:1010600090E0E7DC8111DDC081E080930904D9C004
:10107000D4011496ED91FC9115970190F081E02D2B
:10108000008511850115110509F460C0D801ED90A6
:10109000FC90C280D38020E030E060E070E080E02F
:1010A00090E08E159F050CF5F801A281B381A20F87
:1010B000B31F1296ED91FC911397EE0FFF1FEC0DED
:1010C000FD1D0190F081E02D16960D90BC91A02D94
:1010D000EA9FA001EB9F500DFA9F500D1124640F61
:1010E000751F0196285F3F4FDCCF83E190E0B4DBB2
:1010F000811197C0812C912CA12CB12CAE14BF046E
:101100000CF08FC0D8011296ED91FC911397E80D69
:10111000F91DA281B381AA0FBB1FAC0DBD1D2D917E
:101120003C9186819781289FB001299F700D389F3F
:10113000700D112480819181CBDBB8E08B0E911C66
:1011400081116FC0EFEFAE1ABE0AD8CF60E070E039
:1011500083E190E081DB65C040E050E060E070E05A
:1011600081E190E066DC81115CC0C12CD12C76015C
:10117000C701B601C1D380919404882321F0A50151
:10118000C701B601C8DCA501C701B601DCD2FFEF7B
:10119000CF1ADF0AEF0AFF0A82E0C816D104E10481
:1011A000F10431F710920B0410920A0480910704A5
:1011B000909108040E94D32634C081E090E090937F
:1011C00096048093950440E050E060E070E086E192
:1011D00090E037CF81E0D8018C9323C08D859E8528
:1011E000B8DB009731F42FEF3FEFA90161E070E029
:1011F00012C0FC012081318142815381CA01B901B1
:101200002B8B3C8B4D8B5E8BFFD62B893C894D897C
:101210005E8960E070E08EE190E023DC02C0C501F1
:101220007CDB66960FB6F894DEBF0FBECDBFDF91B4
:10123000CF911F910F91FF90EF90DF90CF90BF90D3
:10124000AF909F908F907F906F905F904F90089598
:10125000CF92DF92EF92FF92CF93DF93EC01C12CFC
:10126000D12C7601C701B60147D3AE01C701B60143
:1012700052DCAE01C701B60166D2809103049091A1
:101280000404009731F00E94AC2C109204041092D8
:1012900003048FEFC81AD80AE80AF80A82E0C816D1
:1012A000D104E104F104F1F680910A04882359F095
:1012B00040E050E060E070E084E190E0BADBC82FED
:1012C00010920A0401C0C0E080910B04882341F011
:1012D00010920B0421E030E03093CD022093CC0239
:1012E00080910704909108040E94D62680910704FB
:1012F000909108040E9468278C2FDF91CF91FF9076
:10130000EF90DF90CF900895CF93DF93EC01AC0185
:1013100060E070E0CB010E94FF13AE0161E070E07D
:1013200080E090E0DF91CF910C94FF1360E070E0DB
:10133000CB010E94641461E070E080E090E00C94C6
:101340006414CF92DF92EF92FF920F931F93CF938B
:10135000DF93EC016A017B0100E010E09801A4D664
:1013600001E010E020E030E0B701A601CE019CD6FC
:10137000DF91CF911F910F91FF90EF90DF90CF9071
:101380000895EF92FF920F931F93CF93DF93DC01A9
:10139000EA01F90114968D919C91159712960D9181
:1013A0001C911397080F191F2881398118964D91A8
:1013B0005C9119974217530728F04D915C91119752
:1013C000452B59F17801E21AF30A18964D915C9178
:1013D0001997481B590B4E0D5F1D46175707B4F15F
:1013E000A901460F571F4017510700F1F182E08213
:1013F000338322836E197F0975836483161617065B
:101400001CF030E020E002C0382F292F36832783DC
:10141000680F791F7983688317C018968D919C9106
:101420001997821B930B8617970784F0718360834B
:1014300033832283158214821782168288819981D0
:10144000860F971F9983888380E001C081E0DF9138
:10145000CF911F910F91FF90EF900895CF93DF935D
:1014600024E4269FE001279FD00D1124C45FDB4FA9
:101470008AA99BA9009721F00E94AC2C1BAA1AAA4A
:101480008EA99FA9009711F00E94AC2C1B8A1A8A82
:101490001E8A1F8A188E198E1A8E1B8E1C8E1D8E08
:1014A0001E8E1F8E18A219A281E090E09BA38AA332
:1014B0001DA21CA21EA21FA218A619A61BA61AA630
:1014C0001DA61CA61EA61FA618AA19AA1BAA1AAA00
:1014D0001DAA1CAA1FAA1EAA19AE18AE1AAE1BAED0
:1014E0001CAE1DAEFE01FE96108211821282138286
:1014F000CE5BDF4F19821882DF91CF910895CF9391
:10150000DF93FB01DC01CD91DC91AE81BF81808155
:10151000918123E0880F991F2A95E1F712960D908B
:10152000BC91A02DA80FB91F6D917C911197848556
:101530009585880F991F0A80DB81C02DC80FD91FA0
:101540000990D881C02D14968D919C911597892B67
:1015500019F082E090E002C081E090E08C9F900161
:101560008D9F300D9C9F300D112480859185289F83
:10157000D001299FB00D389FB00D11240480F58152
:10158000E02D2E9FC0012F9F900D3E9F900D1124A6
:10159000860F971FFA0191838083B383A283DF9123
:1015A000CF9108952F923F924F925F926F927F92C8
:1015B0008F929F92AF92BF92CF92DF92EF92FF9263
:1015C0000F931F93CF93DF9300D000D0CDB7DEB73A
:1015D000DC011496ED91FC9115970190F081E02DBE
:1015E000808591859A838983A281B381BC83AB83F3
:1015F000DB018D909D90AD90BD90C12CD12C7601DA
:10160000C814D904EA04FB040CF060C014964D9091
:101610005D906D907C90179718964D915D916D91AE
:101620007C911B97FD017096FE83ED838D919C91BB
:10163000119763E0880F991F6A95E1F7E981FA81B4
:1016400022813381280F391FF901208031801C96B7
:10165000ED91FC911D97EE0FFF1F8B819C81E80F90
:10166000F91F0190F081E02DD90114968D919C9184
:101670001597892B19F082E090E002C081E090E09C
:101680008E9F90018F9F300D9E9F300D1124249FBF
:101690008001259F100D349F100D1124249DC00141
:1016A000259D900D349D900D1124A8016D817E81A2
:1016B000820D931D0E943B2DAD81BE81A00FB11FF5
:1016C000EFEFCE1ADE0AEE0AFE0A9ACF26960FB682
:1016D000F894DEBF0FBECDBFDF91CF911F910F9168
:1016E000FF90EF90DF90CF90BF90AF909F908F9042
:1016F0007F906F905F904F903F902F900895CF9381
:10170000DF9324E4269FF001279FF00D1124E45F6E
:10171000FB4FDB01A653BD4F3C91332329F0EF0172
:1017200019922A95E9F71C92148215821682178263
:101730001186108613861286118A108A17861686DD
:10174000DF91CF918BCE2F923F924F925F926F920B
:101750007F928F929F92AF92BF92CF92DF92EF9241
:10176000FF920F931F93CF93DF9300D01F92CDB7BB
:10177000DEB76B017C011A0184E48C9D90018D9D84
:10178000300D1124245F3B4F3C832B83F90184816E
:101790009581A681B781892B8A2B8B2B09F495C063
:1017A000A12CB12C412C512C3201AB81BC8114965F
:1017B0004D915D916D917C91179718968D919C91AB
:1017C000199744165506660677068CF5FC01EA0D56
:1017D000FB1D32812381032F122F812C912C821427
:1017E0009304C4F4D801ED91FC91309769F08481A1
:1017F00095812A8339830E94AC2CF80180819181E4
:101800000E94AC2C39812A81FFEF8F1A9F0A0E5F4C
:101810001F4FE5CF832F922F0E94AC2C2FEF421A3F
:10182000520A620A720A34E0A30EB11CBECF0E94B3
:10183000AC2CEB81FC8182859385892BE1F0A12C76
:10184000B12C00E010E0AB81BC811A968D919C9187
:101850001B97021513056CF4FC01EA0DFB1D848136
:1018600095810E94AC2C0F5F1F4FFEE0AF0EB11CA4
:10187000EACF0E94AC2CEB81FC81808991890E9487
:10188000AC2CAB81BC811E968D919C911F970E94C0
:10189000AC2CC701B601E2DDC701B6010F900F9075
:1018A0000F900F90DF91CF911F910F91FF90EF90CC
:1018B000DF90CF90BF90AF909F908F907F906F9070
:1018C0005F904F903F902F901ACF0F900F900F90F6
:1018D0000F90DF91CF911F910F91FF90EF90DF90CC
:1018E000CF90BF90AF909F908F907F906F905F90C0
:1018F0004F903F902F90089524E4269FF001279F5A
:10190000F00D1124E45FFB4F8289938904970297BD
:1019100058F485E090E0938B828B8FEF9FEFDC0192
:10192000828F938FA48FB58F08952F923F924F92FD
:101930005F926F927F928F929F92AF92BF92CF925F
:10194000DF92EF92FF920F931F93CF93DF93CDB768
:10195000DEB7AA970FB6F894DEBF0FBECDBF9AA32D
:1019600089A31B016A010B8B1C8B2D8B3E8B84E49E
:101970002B893C89829F8001839F100D1124045F75
:101980001B4F2B893C894D895E89D8012D933D934E
:101990004D935C931397AB016B897C898D899E89EC
:1019A000D2DEF60141915191619171917F01CA019D
:1019B000D80114964D935D936D937C93179764E0D3
:1019C00070E00E94FA2BF80191878087892B09F437
:1019D0006DC118A21F8E1B8E1C8E1D8E1E8EF801CF
:1019E00084819581A681B7812B8D3C8D4D8D5E8D37
:1019F000281739074A075B070CF0D1C0D8011896A1
:101A00000D90BC91A02D2F8D38A1A20FB31FBA8BC2
:101A1000A98BD7018D919C91880F991FA9A1BAA17B
:101A2000ED91FC91E80FF91F80819181E989FA8994
:101A300091838083D70114962D913D914D915C91B6
:101A400017972BA33CA34DA35EA3B8E0EB0EF11CAC
:101A500062E070E0C1010E94FA2BE989FA89938360
:101A60008283892B09F422C11F8A188E198E1A8E3F
:101A70002F89388D498D5A8D8BA19CA1ADA1BEA116
:101A8000281739074A075B070CF018C1D701CD901A
:101A9000DC90CC0CDD1CE989FA89A280B380AC0C07
:101AA000BD1C68E070E081E090E00E94FA2BD50157
:101AB0008D939C93A989BA891296ED91FC91139705
:101AC000EC0DFD1D808091808114910409F4EEC01D
:101AD000F7014481558166817781CA01D4014D9314
:101AE0005D936D937C931397B8E0EB0EF11C64E06B
:101AF00070E00E94FA2BF40195838483892B09F40A
:101B0000D5C0A12CB12C412C512C3201F401808183
:101B10009181A281B381481659066A067B0694F525
:101B2000D4011496CD90DC901597CA0CDB1CF701FC
:101B3000DE01119680E101900D928A95E1F7B0E106
:101B4000EB0EF11CA601BE016F5F7F4FE9A1FAA168
:101B500084819581D4DCD40116968D919C91179740
:101B6000F60122813381820F931F17969C938E93E7
:101B70001697FFEF4F1A5F0A6F0A7F0A24E0A20E42
:101B8000B11CC4CF2F89388D498D5A8D2F5F3F4F9F
:101B90004F4F5F4F2F8B388F498F5A8F69CF6EE031
:101BA00070E0C1010E94FA2BD8011B969C938E9382
:101BB0001A97612C712C812C912CA12CB12C4424CE
:101BC0004394512C821493040CF050C0F7014191BE
:101BD0005191619171917F01CA01D8011A96CD90FE
:101BE000DC901B97C60CD71C57FD60C0F6015182D4
:101BF0004082009791F04FA358A769A77AA70E9447
:101C0000142CD60115969C938E9314974FA158A52A
:101C100069A57AA5892B21F449C0F60115821482A1
:101C2000D60113965C934E93129714968D919C91C6
:101C3000159717969C938E93169719969C938E934F
:101C400018971B961C921E921A9781E090E0452BE4
:101C5000462B472B11F480E090E0A80EB91EBFEF91
:101C60008B1A9B0AEEE06E0E711CACCFD8011D964C
:101C70001C921E921C97C501F3E0880F991FFA95DC
:101C8000E1F70E94142CF801918B808B892B71F065
:101C9000C501880F991F0E94142CD8011F969C9390
:101CA0008E931E97892B11F080E01BC0A1016B89D8
:101CB0007C898D899E8947DD81E013C02B8D3C8D09
:101CC0004D8D5E8D2F5F3F4F4F4F5F4F2B8F3C8F62
:101CD0004D8F5E8F2F8D38A12C5F3F4F38A32F8FF4
:101CE0007ECEAA960FB6F894DEBF0FBECDBFDF91B1
:101CF000CF911F910F91FF90EF90DF90CF90BF9009
:101D0000AF909F908F907F906F905F904F903F909B
:101D10002F9008953F924F925F926F927F928F9291
:101D20009F92AF92BF92CF92DF92EF92FF920F936A
:101D30001F93CF93DF93CDB7DEB764970FB6F894B8
:101D4000DEBF0FBECDBF4C01FB01298B3A8B4B8B05
:101D50005C8B84E4829F8001839F100D1124025EBE
:101D60001B4F80819181D80113969C938E9312977B
:101D7000448155816681778114964D935D936D936F
:101D80007C931797408551856285738518964D938E
:101D90005D936D937C931B97448555856685778508
:101DA0001C964D935D936D937C931F974089518949
:101DB000628973895C964D935D936D937C935F9775
:101DC0007F01B4E1EB0EF11C141615060CF05DC09A
:101DD000CA01880F991F880F991F0E94142CF801BF
:101DE00091A380A3892B09F499C0A12CB12C412C7B
:101DF000512C320130E1332EB301A2012FEF421AF0
:101E0000520A620A720AF801848D958DA68DB78DEB
:101E1000481759076A077B0764F5D8019096CD905B
:101E2000DC909197CA0CDB1CF701DE011196832D23
:101E300001900D928A95E1F7B0E1EB0EF11CA6013D
:101E4000BE016F5F7F4FF4018481958158DBD8011B
:101E500092968D919C919397F60122813381820F06
:101E6000931F93969C938E939297F4E0AF0EB11CC0
:101E7000C3CF82A193A10E94142CD80195969C9364
:101E80008E939497892B09F449C0F7018081918141
:101E9000A281B381AC01BD014D7F21E030E0452B33
:101EA000462B472B11F020E030E0F801318B208BDE
:101EB0000197A109B10921E030E00297A105B10520
:101EC00010F020E030E0D80153963C932E935297C7
:101ED000F70184819581A681B781F801848B958B68
:101EE000A68BB78B84859585A685B785B7FF10C06F
:101EF000B095A095909581959F4FAF4FBF4F80A70C
:101F000091A7A2A7B3A714861586168617860DC0BB
:101F1000F80110A611A612A613A607C069897A892E
:101F20008B899C899BDA81E001C080E064960FB6C2
:101F3000F894DEBF0FBECDBFDF91CF911F910F91FF
:101F4000FF90EF90DF90CF90BF90AF909F908F90D9
:101F50007F906F905F904F903F900895CF93DF9365
:101F600024E4269FF001279FF00D1124E45FFB4F2E
:101F70001092940415A614A620E030E080E090E0D2
:101F8000C1E0D0E08417950714F5A285B385A20FB0
:101F9000B31F12966D917C911397161617069CF439
:101FA00014966D917C91159717967C936E93169766
:101FB00019967C936E9318971B961C921E921A97F3
:101FC0001196DC93CE930196225F3F4FDBCF13A691
:101FD00012A611AE10AEDF01DE961D921D921D926B
:101FE0001C92139782E090E0938B828BDF91CF91CC
:101FF000089524E4269FF001279FF00D1124E45F4B
:10200000FB4F138A128A9FCB24E4269FF001279F5F
:10201000F00D1124E45FFB4F828993898130910593
:10202000C8F08530910518F0059769F008958FEF95
:102030009FEFDC01828F938FA48FB58F85E090E0B6
:10204000938B828B08958FEF9FEFDC01828F938FAC
:10205000A48FB58F089524E4249FF001259FF00DEF
:102060001124E45FFB4F2EE0AC01249FC001259FAB
:10207000900D11240284F385E02DE80FF91F81E013
:1020800080939404828593859187808740855185CC
:102090002681378181E090E04217530711F080E0FC
:1020A00090E09183808308952F923F924F925F92A8
:1020B0006F927F928F929F92AF92BF92CF92DF9258
:1020C000EF92FF920F931F93CF93DF93CDB7DEB7BD
:1020D000C454D1090FB6F894DEBF0FBECDBF98AF80
:1020E0008FAB4BA75CA76DA77EA723960CAF1DAF48
:1020F0002EAF3FAF239784E421962EAD3FAD2197BD
:10210000829F1001839F300C1124C101845F9B4F7B
:102110001C01DC011A960D90BC91A02D2596BFAF35
:10212000AEAF2597FC0182899389029709F018C107
:1021300086A597A5A0A9B1A9892B8A2B8B2B29F459
:1021400084E090E0938B828B0BC1D10184899589C7
:10215000EFA9F8ADE817F90709F002C1D6960D917D
:102160001C91D7971AAE19AE412C512C3201F101B6
:1021700086A597A5A0A9B1A9481659066A067B06A7
:102180000CF0D0C0D101D2960D90BC91A02DE9AD3C
:10219000FAADAE0FBF1FBAABA9AB12962D913C9111
:1021A00013973CAF2BAF36952795369527953EAFC5
:1021B0002DAFD101D8968D919C91D997892B09F497
:1021C00095C09696CD90DD90ED90FC90999718ABC8
:1021D0000FA7E9A9FAA90190F081E02DFCABEBABC8
:1021E0001EAA1DAAEDA9FEA92DAD3EADE217F3076B
:1021F0000CF07CC0D10192968D919C919397892B84
:1022000079F1EBA9FCA980809180A280B380A7011D
:102210009601C501B4010E944E2B87FD0CC0A70199
:102220009601AFA5B8A96D917D918D919C910E9469
:10223000FF2987FD7CC0A7019601C501B4010E945A
:102240004E2B18166CF4A7019601EFA5F8A9608132
:102250007181828193810E94FF29882309F467C0DC
:10226000D10194968D919C919597892B71F1EBA951
:10227000FCA980809180A280B380A7019601C5014E
:10228000B4010E94FF2987FF0CC0A7019601AFA5EA
:10229000B8A96D917D918D919C910E944E2B87FFE5
:1022A00046C0A7019601C501B4010E94FF29811112
:1022B0000CC0A7019601EFA5F8A960817181828108
:1022C00093810E944E2B181694F12DA93EA92F5FE1
:1022D0003F4F3EAB2DAB8FA598A9049698AB8FA727
:1022E000ABA9BCA91496BCABABAB7CCFA9A9BAA9CE
:1022F0006D917C914BAD5CADC8010E943B2D8DADC5
:102300009EAD880F991F880F991F080F191FBFEFE7
:102310004B1A5B0A6B0A7B0AE9ADFAAD3496FAAF49
:10232000E9AF25CF81E090E091AF80AF19C0F10116
:10233000868D978DA0A1B1A1892B8A2B8B2B09F0BB
:102340003AC284E090E0D10153969C938E935297C9
:10235000DE968D919C91DF979B969C938E939A9796
:10236000D10152968D919C9153978230910589F4B9
:10237000DA968D919D910D90BC91A02D181619069D
:102380001A061B060CF021C2E1E0F0E0F8ABEFA763
:1023900005C0049709F019C218AA1FA68EE02FA93C
:1023A00038AD829F5001839FB00C112425968EADCD
:1023B0009FAD2597A80EB91ED50112964D915C913F
:1023C00013974115510509F400C216968D919C9101
:1023D00017979AA789A7FE01319684E1DF011D9224
:1023E0008A95E9F723968CAD9DADAEADBFAD239731
:1023F000898B9A8BAB8BBC8BAFA5B8A9AB2B09F49F
:1024000048C04101BEE38B0E911CF401C080D18015
:10241000E280F380F10182AD93ADA4ADB5ADC816F5
:10242000D906EA06FB06A9F5D50114966D917C91B3
:10243000159718960D90BC91A02D14960D911D9195
:102440002D913C911797C8010D8B1E8B2F8B388FC8
:1024500008969E8B8D8BF50120853185280F391FBD
:102460003187208780859185460F571F841B950BE8
:1024700097FD04C0680F791F71876087F1E0CF1A5C
:10248000D108E108F108D401CD92DD92ED92FC92E1
:1024900013979E012B5E3F4FAE01475D5F4F64E196
:1024A00070E0C5010E94C109082F10E00115110557
:1024B00009F06DC18CE090E0A0E0B0E08D839E83D8
:1024C000AF83B8879E01235E3F4FAE01475D5F4FEC
:1024D00064E070E0C5010E94C109082F10E00115F9
:1024E000110509F054C180E190E0A0E0B0E08D83D7
:1024F0009E83AF83B8874D8D5E8DBE01655D7F4F36
:102500008F8D98A10E943B2D8BA19CA1009761F01B
:102510006D8D7E8DEBE2F0E0EC0FFD1F6E0F7F1FE7
:1025200049A15AA10E943B2D1DA21EA21FA218A6BE
:102530002FA938AD220F331F3EAB2DABCDA0DEA0AF
:10254000EFA0F8A4F10184819581A681B781C81616
:10255000D906EA06FB060CF0CBC0D1011896ED9126
:10256000FC911997C601880F991F880F991FE80FD2
:10257000F91FA081B1818C91882309F4AFC0833009
:1025800009F4ACC00280F381E02D2DA93EA9E20F31
:10259000F31F808191819CAB8BAB892B09F49EC08A
:1025A00089859A85AB85BC850196A11DB11D89875A
:1025B0009A87AB87BC879E01235E3F4FAE01475D84
:1025C0005F4F64E070E0C5010E94C10990E0009790
:1025D00009F0DCC08D819E81AF81B8850496A11D74
:1025E000B11D8D839E83AF83B8874D8D5E8DBE01F7
:1025F0006B5D7F4F8F8D98A10E943B2D8BA19CA17D
:10260000009761F06D8D7E8DA5E2B0E0AC0FBD1F2F
:102610006A0F7B1F49A15AA10E943B2D1AAA19AA31
:10262000412C512C3201EBA9FCA980819181A2811E
:10263000B381481659066A067B060CF04FC0EBA919
:10264000FCA98480958029A93AA9820E931ED40101
:1026500012966D917C9113979E01235E3F4FAE01C0
:10266000475D5F4FC5010E94C10990E0009709F0E6
:102670008DC0F40142815381662757FD6095762F06
:102680008D819E81AF81B885840F951FA61FB71FCE
:102690008D839E83AF83B887608171814D8D5E8D00
:1026A0008F8D98A10E943B2D8BA19CA1009759F082
:1026B000D4016D917C912D8D3E8D620F731F49A1C8
:1026C0005AA10E943B2DBFEF4B1A5B0A6B0A7B0A93
:1026D000E9A9FAA93496FAABE9ABA5CFFFEFCF1A77
:1026E000DF0AEF0AFF0ACDA2DEA2EFA2F8A626CFEC
:1026F00089859A85AB85BC85892B8A2B8B2B09F420
:1027000046C08AE190E0A0E0B0E089839A83AB8381
:10271000BC832FA938ADC901AA2797FDA095BA2F70
:102720008D879E87AF87B88B4D895E89BE016F5FAD
:102730007F4F8F89988D0E943B2D8B8D9C8D0097AC
:1027400061F06D897E89A1E0B0E0AC0FBD1F6A0F1A
:102750007B1F498D5A8D0E943B2D89A59AA5F501B5
:1027600097838683118210822FA538A9232B69F1C4
:10277000F101FE9680819181A281B3810196A11D14
:10278000B11D80839183A283B3831FC08C018FA569
:1027900098A9892BD1F4012BC1F081E090E0D101FF
:1027A0009D969C938E939C9785E090E053969C9386
:1027B0008E9352970AC083E090E0F101938B828B55
:1027C00081E090E093A782A7CBCDCC5BDF4F0FB623
:1027D000F894DEBF0FBECDBFDF91CF911F910F9157
:1027E000FF90EF90DF90CF90BF90AF909F908F9031
:1027F0007F906F905F904F903F902F900895CF9271
:10280000DF92EF92FF920F931F93CF93DF9324E415
:10281000269FE001279FD00D1124C45FDB4F2A893A
:102820003B892115310509F446C021303105A9F451
:10283000CAA4DBA496012F5F3F4F3BA72AA7EE2433
:10284000D7FCE094FE2C0A8D1B8D2C8D3D8DC0167F
:10285000D106E206F30679F581DB8A899B89039725
:1028600051F54AA55BA5CA0101969BA78AA76627D1
:1028700057FD6095762F8E8D9F8DA8A1B9A1481721
:1028800059076A077B07BCF08EAD9FAD9BA78AA74F
:1028900084E090E09B8B8A8B8AAD9BADACADBDADE7
:1028A000181619061A061B0634F4CE5BDF4F81E0BA
:1028B00090E099838883DF91CF911F910F91FF90D2
:1028C000EF90DF90CF90089524E4269FF001279F9A
:1028D000F00D1124E45FFB4F828993890497B9F4CA
:1028E00042A553A54F5F5F4F53A742A7662757FDE9
:1028F0006095762F86899789A08DB18D48175907E5
:102900006A077B0721F485E090E0938B828B089522
:102910002F923F924F925F926F927F928F929F92EF
:10292000AF92BF92CF92DF92EF92FF920F931F93DD
:10293000CF93DF9300D01F92CDB7DEB749835A8380
:102940006B837C83490124E4249F8001259F100D23
:102950001124045F1B4FD80152966D907C905397C1
:102960009301245031092230310508F0BCC01D9676
:102970001C921E921C97FC011182108213821282FB
:10298000A12CB12C20E030E0281539050CF067C0EF
:10299000D8011A962D903C901B972A0C3B1CF101F4
:1029A00040815181452B09F054C06085718542807A
:1029B0005380468157811C96ED90FC901D976701CE
:1029C000F3E0CC0CDD1CFA95E1F75096ED91FC910B
:1029D0005197EC0DFD1D6701CC0CDD1C1E96ED9092
:1029E000FC901F97EC0CFD1CD7012D933C93D80154
:1029F0001C96ED90FC901D97BFEFEB1AFB0AD801D7
:102A00001D96FC92EE921C9773836283D1011B96F4
:102A10005C934E931A976417750748F4461B570B3F
:102A200051834083158214821782168212C0D1010D
:102A30001496CD90DC9015977601E40CF51CE61AFF
:102A4000F70AF182E0824C195D0955834483D782ED
:102A5000C6822F5F3F4FBEE0AB0EB11C95CFF80191
:102A600024853585DC0111963C932E93408951894C
:102A700013965C934E9312974685578515965C93F3
:102A80004E931497232BD1F5B5E06B167104B1F575
:102A900010929404828D938DA48DB58DAE014F5FFD
:102AA0005F4F64E070E08F3F9F4FAF4FBF4F59F4CF
:102AB00080E290E00E94190569817A818B819C8176
:102AC000A40197DA1BC08FE190E00E941905D8019C
:102AD0009B961C921E929A9781E090E053969C934D
:102AE0008E9352970BC0F80115861486DC0111965F
:102AF0001C921E9213961C921E9212970F900F908A
:102B00000F900F90DF91CF911F910F91FF90EF9059
:102B1000DF90CF90BF90AF909F908F907F906F90FD
:102B20005F904F903F902F900895EF92FF920F93F8
:102B30001F93CF93DF937C018B01EA010E948505EF
:102B4000811121C08091CC029091CD02049711F1A6
:102B500083E090E09093CD028093CC021BC08881EB
:102B60008111F0CF28ED38EB45E050E060E070E0F7
:102B7000CB010E942106AE01B801C7010E943006B8
:102B8000C8010E94FB058091950490919604892BC1
:102B900031F3D8CFDF91CF911F910F91FF90EF903C
:102BA0000895CF93DF93EB012091CC023091CD02B9
:102BB0002430310539F00E943006CE01DF91CF91EB
:102BC0000C94FB05DF91CF9108950C94A1090C940E
:102BD00096090C9484090C940B060C94280908950A
:102BE00060E070E080E090E00C945D050895AF92A5
:102BF000BF92CF92DF92EF92FF920F931F93CF93EA
:102C0000DF931F921F92CDB7DEB75C0169017A0195
:102C10008B0180E090E0C114D104E104F104F1F0F3
:102C2000C114D10421E0E206F10410F4A60102C0AF
:102C30004FEF5FEF9E012F5F3F4FB801C5010E942C
:102C400082288F3F2FEF920749F029813A81C21ADB
:102C5000D30AE108F108020F131FDDCF0F900F9088
:102C6000DF91CF911F910F91FF90EF90DF90CF9068
:102C7000BF90AF900895AF92BF92CF92DF92EF9244
:102C8000FF920F931F93CF93DF931F921F92CDB7A5
:102C9000DEB75C0169017A018B0180E090E0C1142C
:102CA000D104E104F104F1F0C114D10421E0E20601
:102CB000F10410F4A60102C04FEF5FEF9E012F5FF9
:102CC0003F4FB801C5010E94C0288F3F2FEF9207E8
:102CD00049F029813A81C21AD30AE108F108020FAA
:102CE000131FDDCF0F900F90DF91CF911F910F91A8
:102CF000FF90EF90DF90CF90BF90AF9008958091BC
:102D00009704880F880F80939704ECB1E073E295E5
:102D1000EF70E82BE093970480919C0490919D04C0
:102D2000A0919E04B0919F04EF70F0E0EF56FC4F2D
:102D30004081552747FD5095652F752F840F951FAE
:102D4000A61FB71F80939C0490939D04A0939E049C
:102D5000B0939F0408951F920F920FB60F92112403
:102D60000BB60F922F933F934F935F936F937F9385
:102D70008F939F93AF93BF93EF93FF9320919C0406
:102D800030919D0440919E0450919F04A0E6BAEEBC
:102D90000E94DD2B0E949E2A2091CE023091CF020C
:102DA0004091D0025091D1020E94032A20E030E0ED
:102DB0004AEF54E40E94032A6093980470939904A4
:102DC00080939A0490939B0410929C0410929D040B
:102DD00010929E0410929F04FF91EF91BF91AF91CA
:102DE0009F918F917F916F915F914F913F912F9123
:102DF0000F900BBE0F900FBE0F901F901895CF93A2
:102E0000DF93EC0120E030E040E85FE3FB0160810C
:102E10007181828193810E94FF2981110CC04091B0
:102E200098045091990460919A0470919B0448838E
:102E300059836A837B83DF91CF910895CF93DF938A
:102E4000EB0120E030E040E85FE3688179818A812E
:102E50009B810E94FF298823D9F110929000109243
:102E60009100809191008860809391008091910001
:102E700083608093910080917100826080937100E3
:102E800020E030E048E753E46091CE027091CF0239
:102E90008091D0029091D1020E94522B0E94702A00
:102EA000709399006093980041E050E06FE776E1FD
:102EB00080E09DD041E050E06FE776E181E097D07F
:102EC00080E090E0A0E8BFE388839983AA83BB8376
:102ED000DF91CF910895CF92DF92EF92FF92CF933F
:102EE000DF93EC0120E030E040E85FE3FB0160812C
:102EF0007181828193810E94FF29811135C0C88030
:102F0000D980EA80FB8020E030E048EC52E4C70141
:102F1000B6010E944E2B18166CF020E030E0A9019B
:102F2000C701B6010E94FF2987FF0AC0C12CD12C1E
:102F3000760106C0C12CD12C88ECE82E82E4F82E54
:102F400020E030E040E253E4C701B6010E94522B7A
:102F500020E030E048EC52E40E94032A0E946B2AF1
:102F60007093AB006093AA00DF91CF91FF90EF9038
:102F7000DF90CF900895CF93DF93EB0120E030E016
:102F800040E85FE3688179818A819B810E94FF2903
:102F9000882349F161E087E06BD31092A000109282
:102FA000A1008091A00083608093A0008091A10087
:102FB00080618093A1008091A00080628093A00036
:102FC0008091A10081608093A10080EA90E09093BD
:102FD000A9008093A80080E090E0A0E8BFE3888388
:102FE0009983AA83BB83DF91CF9108950895883098
:102FF00008F06DC0E82FF0E0EE0FFF1FE056FB4F2A
:103000007183608390E0FC013197E730F10590F522
:10301000EE57FF4F0C94D72B809169008C7F842B47
:1030200080936900E89A089580916900440F551FC4
:10303000440F551F837F842B80936900E99A08957C
:103040008091690074E0440F551F7A95E1F78F7CF9
:10305000842B80936900EA9A08958091690066E064
:10306000440F551F6A95E1F78F73842B8093690095
:10307000EB9A089580916A008C7F842B80936A007C
:10308000EC9A089580916A00440F551F440F551F14
:10309000837F842B80936A00ED9A089580916A0063
:1030A00024E0440F551F2A95E1F78F7C842B8093F1
:1030B0006A00EE9A089580916A0096E0440F551FC9
:1030C0009A95E1F78F73842B80936A00EF9A0895A5
:1030D0001F920F920FB60F9211240BB60F922F93DF
:1030E0003F934F935F936F937F938F939F93AF9390
:1030F000BF93EF93FF938091A4049091A504892B33
:1031000029F0E091A404F091A5041995FF91EF91A5
:10311000BF91AF919F918F917F916F915F914F91EF
:103120003F912F910F900BBE0F900FBE0F901F90ED
:1031300018951F920F920FB60F9211240BB60F9293
:103140002F933F934F935F936F937F938F939F93AF
:10315000AF93BF93EF93FF938091A6049091A70440
:10316000892B29F0E091A604F091A7041995FF910D
:10317000EF91BF91AF919F918F917F916F915F91EF
:103180004F913F912F910F900BBE0F900FBE0F905C
:103190001F9018951F920F920FB60F9211240BB625
:1031A0000F922F933F934F935F936F937F938F93E0
:1031B0009F93AF93BF93EF93FF938091A804909157
:1031C000A904892B29F0E091A804F091A90419958C
:1031D000FF91EF91BF91AF919F918F917F916F91EF
:1031E0005F914F913F912F910F900BBE0F900FBEAB
:1031F0000F901F9018951F920F920FB60F921124E7
:103200000BB60F922F933F934F935F936F937F93E0
:103210008F939F93AF93BF93EF93FF938091AA04F3
:103220009091AB04892B29F0E091AA04F091AB04B2
:103230001995FF91EF91BF91AF919F918F917F91E0
:103240006F915F914F913F912F910F900BBE0F9017
:103250000FBE0F901F9018951F920F920FB60F92EE
:1032600011240BB60F922F933F934F935F936F935D
:103270007F938F939F93AF93BF93EF93FF9380912F
:10328000A0049091A104892B29F0E091A004F09171
:10329000A1041995FF91EF91BF91AF919F918F91EB
:1032A0007F916F915F914F913F912F910F900BBE46
:1032B0000F900FBE0F901F9018951F920F920FB690
:1032C0000F9211240BB60F922F933F934F935F935E
:1032D0006F937F938F939F93AF93BF93EF93FF93DE
:1032E0008091A2049091A304892B29F0E091A2047B
:1032F000F091A3041995FF91EF91BF91AF919F9128
:103300008F917F916F915F914F913F912F910F908E
:103310000BBE0F900FBE0F901F9018951F920F922B
:103320000FB60F9211240BB60F922F933F934F932A
:103330005F936F937F938F939F93AF93BF93EF931D
:10334000FF938091AC049091AD04892B29F0E0911A
:10335000AC04F091AD041995FF91EF91BF91AF913D
:103360009F918F917F916F915F914F913F912F919D
:103370000F900BBE0F900FBE0F901F9018951F92CD
:103380000F920FB60F9211240BB60F922F933F930B
:103390004F935F936F937F938F939F93AF93BF935D
:1033A000EF93FF938091AE049091AF04892B29F0A5
:1033B000E091AE04F091AF041995FF91EF91BF91A8
:1033C000AF919F918F917F916F915F914F913F91BD
:1033D0002F910F900BBE0F900FBE0F901F9018955E
:1033E0001F920F920FB60F9211242F933F938F933A
:1033F0009F93AF93BF938091B1049091B204A09139
:10340000B304B091B4043091B00423E0230F2D37FE
:1034100020F40196A11DB11D05C026E8230F0296D8
:10342000A11DB11D2093B0048093B1049093B20408
:10343000A093B304B093B4048091B5049091B60402
:10344000A091B704B091B8040196A11DB11D80935D
:10345000B5049093B604A093B704B093B804BF9199
:10346000AF919F918F913F912F910F900FBE0F9031
:103470001F9018953FB7F8948091B5049091B604C9
:10348000A091B704B091B80426B5A89B05C02F3F02
:1034900019F00196A11DB11D3FBF6627782F892F16
:1034A0009A2F620F711D811D911D42E0660F771FDB
:1034B000881F991F4A95D1F70895CF92DF92EF9216
:1034C000FF92CF93DF936B017C01D4DFEB01C1143A
:1034D000D104E104F10479F089DDCCDF6C1B7D0BB4
:1034E000683E7340A0F381E0C81AD108E108F108F2
:1034F000C851DC4FECCFDF91CF91FF90EF90DF9080
:10350000CF900895789484B5826084BD84B581603D
:1035100084BD85B5826085BD85B5816085BDEEE6DB
:10352000F0E0808181608083E1E8F0E010828081BA
:1035300082608083808181608083E0E8F0E0808128
:1035400081608083E1EBF0E0808184608083E0EB48
:10355000F0E0808181608083E1E9F0E08081826039
:103560008083808181608083E0E9F0E080818160F8
:103570008083E1EAF0E080818260808380818160E5
:103580008083E0EAF0E0808181608083E1E2F1E025
:10359000808182608083808181608083E0E2F1E0CD
:1035A000808181608083EAE7F0E0808184608083AD
:1035B0008081826080838081816080838081806857
:1035C00080831092C100089590E0FC013197E231B0
:1035D000F10508F04CC0E757FF4F0C94D72B8091B2
:1035E00080008F7703C0809180008F7D8093800062
:1035F000089580918000877FF9CF84B58F7702C0CE
:1036000084B58F7D84BD08958091B0008F7703C00D
:103610008091B0008F7D8093B000089580919000DC
:103620008F7707C0809190008F7D03C080919000BC
:10363000877F8093900008958091A0008F7707C0C6
:103640008091A0008F7D03C08091A000877F809330
:10365000A0000895809120018F7707C080912001FC
:103660008F7D03C080912001877F80932001089582
:10367000CF93DF9390E0FC01E458FE4F2491FC01CE
:10368000EE53FE4F8491882349F190E0880F991FF3
:10369000FC01EE5DFD4FA591B491885F9D4FFC014B
:1036A000C591D4919FB7611108C0F8948C91209571
:1036B00082238C93888182230AC0623051F4F8946B
:1036C0008C91322F309583238C938881822B888331
:1036D00004C0F8948C91822B8C939FBFDF91CF9183
:1036E00008950F931F93CF93DF931F92CDB7DEB74B
:1036F000282F30E0F901EA5CFE4F8491F901E4588B
:10370000FE4F1491F901EE53FE4F04910023C1F0D6
:10371000882319F0698358DF6981E02FF0E0EE0F0C
:10372000FF1FE85FFD4FA591B4919FB7F8948C916E
:10373000611103C01095812301C0812B8C939FBF21
:103740000F90DF91CF911F910F910895FC01818D12
:10375000228D90E0805C9F4F821B91098F73992787
:103760000895FC01918D828D981731F0828DE80FBC
:10377000F11D858D90E008958FEF9FEF0895FC0176
:10378000918D828D981761F0828DDF01A80FB11D98
:103790005D968C91928D9F5F9F73928F90E00895BC
:1037A0008FEF9FEF0895FC01848DDF01A80FB11DFD
:1037B000A35ABF4F2C91848D90E001968F73992767
:1037C000848FA689B7892C93A089B1898C91806454
:1037D0008C93938D848D981306C00288F389E02D15
:1037E00080818F7D80830895CF93DF93EC01888D56
:1037F0008823C1F0EA89FB89808185FD05C0A889FD
:10380000B9898C9186FD0EC00FB607FCF5CF80817B
:1038100085FFF2CFA889B9898C9185FFEDCFCE01C4
:10382000C2DFE8CFDF91CF910895CF92DF92FF9270
:103830000F931F93CF93DF931F92CDB7DEB76C0129
:10384000DC015B969C915B975C968C915C979813DE
:1038500007C05096ED91FC915197808185FD31C054
:10386000F601038D10E00F5F1F4F0F731127F02E2D
:10387000F601848DF81210C00FB607FCF9CFD601FF
:103880005096ED91FC915197808185FFF1CFC60153
:10389000698389DF6981ECCF838DE80FF11DE35ADD
:1038A000FF4F6083D6015B960C935B975296ED9128
:1038B000FC91539780818062808381E058968C933D
:1038C0000DC0D6015696ED91FC91579760835096A6
:1038D000ED91FC91519780818064808381E090E03C
:1038E0000F90DF91CF911F910F91FF90DF90CF90BC
:1038F0000895BF92CF92DF92EF92FF92CF93DF9322
:10390000EC016A017B01B22EE889F98982E08083AB
:10391000411581EE580761057105A1F060E079E07D
:103920008DE390E0A70196010E94B52B215031094B
:10393000410951095695479537952795211580E1FD
:10394000380798F0E889F989108260E874E88EE118
:1039500090E0A70196010E94B52B21503109410941
:1039600051095695479537952795EC85FD85308308
:10397000EE85FF852083188EEC89FD89B082EA8967
:10398000FB89808180618083EA89FB8980818860EE
:103990008083EA89FB89808180688083EA89FB894A
:1039A00080818F7D8083DF91CF91FF90EF90DF90BA
:1039B000CF90BF9008951F920F920FB60F921124CF
:1039C0000BB60F922F938F939F93EF93FF93E091FA
:1039D000C904F091CA048081E091CF04F091D00431
:1039E00082FD12C090818091D2048F5F8F732091ED
:1039F000D304821751F0E091D204F0E0E754FB4F7A
:103A0000958F8093D20401C08081FF91EF919F91A7
:103A10008F912F910F900BBE0F900FBE0F901F90A4
:103A200018951F920F920FB60F9211240BB60F929A
:103A30002F933F934F935F936F937F938F939F93B6
:103A4000AF93BF93EF93FF9389EB94E0ACDEFF91CC
:103A5000EF91BF91AF919F918F917F916F915F9106
:103A60004F913F912F910F900BBE0F900FBE0F9073
:103A70001F9018951092BC041092BB0488EE93E03E
:103A8000A0E0B0E08093BD049093BE04A093BF0477
:103A9000B093C00485EA93E09093BA048093B9048C
:103AA00085EC90E09093C6048093C50484EC90E08C
:103AB0009093C8048093C70480EC90E09093CA046C
:103AC0008093C90481EC90E09093CC048093CB0464
:103AD00082EC90E09093CE048093CD0486EC90E04D
:103AE0009093D0048093CF041092D2041092D30408
:103AF0001092D4041092D50408951F920F920FB61D
:103B00000F9211240BB60F922F938F939F93EF93E5
:103B1000FF93E0916605F09167058081E0916C0567
:103B2000F0916D0582FD12C0908180916F058F5FCD
:103B30008F7320917005821751F0E0916F05F0E0CE
:103B4000EA5AFA4F958F80936F0501C08081FF91EB
:103B5000EF919F918F912F910F900BBE0F900FBE01
:103B60000F901F9018951F920F920FB60F9211246D
:103B70000BB60F922F933F934F935F936F937F9367
:103B80008F939F93AF93BF93EF93FF9386E595E059
:103B90000ADEFF91EF91BF91AF919F918F917F913D
:103BA0006F915F914F913F912F910F900BBE0F90AE
:103BB0000FBE0F901F90189510925905109258053E
:103BC00088EE93E0A0E0B0E080935A0590935B0507
:103BD000A0935C05B0935D0585EA93E0909357054B
:103BE000809356058DEC90E0909363058093620579
:103BF0008CEC90E0909365058093640588EC90E0F0
:103C0000909367058093660589EC90E09093690531
:103C1000809368058AEC90E090936B0580936A0529
:103C20008EEC90E090936D0580936C0510926F057B
:103C300010927005109271051092720508951F92EE
:103C40000F920FB60F9211240BB60F922F938F93F2
:103C50009F93EF93FF93E0910306F0910406808118
:103C6000E0910906F0910A0682FD12C090818091D0
:103C70000C068F5F8F7320910D06821751F0E09133
:103C80000C06F0E0ED50FA4F958F80930C0601C0C2
:103C90008081FF91EF919F918F912F910F900BBE9B
:103CA0000F900FBE0F901F9018951F920F920FB696
:103CB0000F9211240BB60F922F933F934F935F9364
:103CC0006F937F938F939F93AF93BF93EF93FF93E4
:103CD00083EF95E068DDFF91EF91BF91AF919F91E8
:103CE0008F917F916F915F914F913F912F910F90A5
:103CF0000BBE0F900FBE0F901F9018951092F605F7
:103D00001092F50588EE93E0A0E0B0E08093F7050F
:103D10009093F805A093F905B093FA0585EA93E02E
:103D20009093F4058093F30585ED90E09093000661
:103D30008093FF0584ED90E0909302068093010646
:103D400080ED90E0909304068093030681ED90E06F
:103D5000909306068093050682ED90E09093080606
:103D60008093070686ED90E090930A0680930906FB
:103D700010920C0610920D0610920E0610920F066D
:103D800008951F920F920FB60F9211240BB60F9247
:103D90002F938F939F93EF93FF93E091A006F09161
:103DA000A1068081E091A606F091A70682FD12C0CF
:103DB00090818091A9068F5F8F732091AA06821748
:103DC00051F0E091A906F0E0E057F94F958F80930C
:103DD000A90601C08081FF91EF919F918F912F9152
:103DE0000F900BBE0F900FBE0F901F9018951F9253
:103DF0000F920FB60F9211240BB60F922F933F9391
:103E00004F935F936F937F938F939F93AF93BF93E2
:103E1000EF93FF9380E996E0C6DCFF91EF91BF91AD
:103E2000AF919F918F917F916F915F914F913F9152
:103E30002F910F900BBE0F900FBE0F901F901895F3
:103E4000109293061092920688EE93E0A0E0B0E004
:103E50008093940690939506A0939606B093970648
:103E600085EA93E0909391068093900685E391E034
:103E700090939D0680939C0684E391E090939F0627
:103E800080939E0680E391E09093A1068093A00624
:103E900081E391E09093A3068093A20682E391E0F0
:103EA0009093A5068093A40686E391E09093A706DD
:103EB0008093A6061092A9061092AA061092AB064D
:103EC0001092AC060895AF92BF92CF92DF92EF921C
:103ED000FF920F931F93CF93DF936C017B01C0E0A0
:103EE000D0E000E010E0F601EC0FFD1F4AE050E0EA
:103EF0006281C701D7D05C016EE2C70168D08A0D2C
:103F00009B1D080F191F2196C330D10561F74AE0A8
:103F100050E0F6016581C701C5D0800F911FDF9188
:103F2000CF911F910F91FF90EF90DF90CF90BF90B6
:103F3000AF90089585EB93E090932E0780932D0723
:103F400010922F071092300710923107109232070B
:103F50000895CF92DF92EF92FF920F931F93CF932A
:103F6000DF936C017A01EB01E60EF71E00E010E032
:103F7000CE15DF0561F06991D601ED91FC910190BC
:103F8000F081E02DC6011995080F191FF1CFC80166
:103F9000DF91CF911F910F91FF90EF90DF90CF9025
:103FA00008956115710581F0DB010D900020E9F79E
:103FB000AD0141505109461B570BDC01ED91FC91BD
:103FC0000280F381E02D199480E090E00895DC01F7
:103FD000ED91FC910190F081E02D19948F929F92C8
:103FE000AF92BF92CF92DF92EF92FF920F931F9307
:103FF000CF93DF93CDB7DEB7A1970FB6F894DEBFAE
:104000000FBECDBF7C01C42EE52FCB01D22E19A24D
:1040100021E02D1510F02AE0D22E8E010F5D1F4FEA
:104020008D2C912CA12CB12C6C2D7E2FA5019401EF
:104030000E94B52B8C2DD29E80191124015011099C
:104040008A3014F4805D01C0895CF80180832115F9
:1040500031054105510521F0C22EE32FCA01E4CFFD
:10406000B801C7019EDFA1960FB6F894DEBF0FBE60
:10407000CDBFDF91CF911F910F91FF90EF90DF9017
:10408000CF90BF90AF909F908F90089521153105EC
:1040900041F4DC01ED91FC910190F081E02D642F61
:1040A00019949CCF9A01462F50E060E070E0EECF6B
:1040B0008230A9F028F4882349F0813051F0089526
:1040C000843009F1E8F0853009F1089510926E000E
:1040D000089580916F008D7F80936F000895809187
:1040E00070008D7F8093700081E08093B00080919C
:1040F000B100887F84608093B1001092B30008956E
:104100001092710008951092720008951092730039
:104110000895CF93C82F8091D2028C1307C0ECE38F
:10412000F2E084919FEF9093D20201C08FEFC0DF45
:1041300060E08C2FCF91D5CA1F920F920FB60F92CD
:1041400011240BB60F922F933F934F935F936F936E
:104150007F938F939F93AF93BF93EF93FF93809140
:10416000360790913707A0913807B0913907892B0E
:104170008A2B8B2B51F190913307E0913407F0910A
:104180003507808189278083809136079091370792
:10419000A0913807B0913907181619061A061B06A0
:1041A000BCF48091360790913707A0913807B09101
:1041B00039070197A109B109809336079093370712
:1041C000A0933807B093390703C08091D202A1DFD2
:1041D000FF91EF91BF91AF919F918F917F916F91DF
:1041E0005F914F913F912F910F900BBE0F900FBE9B
:1041F0000F901F90189508951F920F920FB60F926F
:1042000011240BB60F922F933F934F935F936F93AD
:104210007F938F939F93AF93BF93EF93FF938BEC19
:1042200093EF9093250180932401EBD7FF91EF91B9
:10423000BF91AF919F918F917F916F915F914F91BE
:104240003F912F910F900BBE0F900FBE0F901F90BC
:1042500018958BEC93EF9093250180932401A3E7AD
:10426000B0E08C918E7F8C93E0E2F1E080818C7FD6
:104270008083E1E2F1E08081877E808380818460B9
:10428000808380818C7F80838C9181608C93089562
:10429000CF92DF92EF92FF920F931F93CF93DF9312
:1042A000FC01DB01CA01B901C12CD12C76011DE74B
:1042B000C0E2C216D306E406F506C9F00C9103303D
:1042C00021F0D3E8D00FD23080F41083DC91DC27CA
:1042D000D18332966F5F7F4F8F4F9F4FDFEFCD1AA5
:1042E000DD0AED0AFD0A1196E4CF0193F7CFDF91C5
:1042F000CF911F910F91FF90EF90DF90CF90089595
:10430000AF92BF92CF92DF92EF92FF920F931F93E3
:10431000CF93DF93CDB7DEB72C970FB6F894DEBFFF
:104320000FBECDBF8C015B01FB018181882309F4A5
:1043300086C08EE7F8018083818383E08587868746
:10434000108A1786128A118A138A148A158A168A85
:10435000178A22E030E040E050E0B801C501CFD23A
:1043600081116EC021E030E040E050E0B8016E5FA6
:104370007F4FCE0101968CDF9B01AC01BE016F5FC8
:104380007F4FC501BCD281115BC0F5012081F801CE
:1043900083819481A581B68189879A87AB87BC8701
:1043A000211108C02B859A8589853C8539872A8704
:1043B0009B878C8724E030E040E050E0BE01675FDF
:1043C0007F4FCE01019664DF9B01AC01BE016F5FA0
:1043D0007F4FC50194D2811133C0C12CD12C7601FD
:1043E000F80183819481A581B681C816D906EA06B1
:1043F000FB06D8F4F801678170856C0D7D1D21E006
:1044000030E040E050E0CE01019642DF9B01AC017C
:10441000BE016F5F7F4FC50172D2811111C0FFEFE6
:10442000CF1ADF0AEF0AFF0ADBCFB801635F7F4FC5
:1044300022E030E040E050E0C50161D201C080E000
:104440002C960FB6F894DEBF0FBECDBFDF91CF9193
:104450001F910F91FF90EF90DF90CF90BF90AF90A2
:1044600008952F923F924F925F926F927F928F9218
:104470009F92AF92BF92CF92DF92EF92FF920F93F3
:104480001F93CF93DF93CDB7DEB727970FB6F8947E
:10449000DEBF0FBECDBF7C016B011D8219821A8267
:1044A0001B821C82DB0111968C91882309F4AAC11E
:1044B0008EE7F7018083818383E085878687108A72
:1044C0001786128A118A138A148A158A168A178AFD
:1044D0003396FF83EE8385E0482E512C5701FDE093
:1044E000AF0EB11C47018FEF881A980A66246394B7
:1044F000712C170192E0290E311C8E010F5F1F4FA6
:1045000021E030E040E050E0BE016B5F7F4FC6012C
:104510004BD2811178C189819A81AB81BC8101978D
:10452000A105B10551F0D70150961C921E921F971C
:1045300052961C921E92519765C1F701878590890A
:1045400002970397C8F497898D81992329F0178AD8
:10455000F0E28F278D8310C08D3749F08E3739F107
:10456000833051F4128A118A108A178605C0E1E05F
:10457000D7015796EC93C1CFF70187859089823098
:10458000910509F43FC02CF4009769F0019731F1CF
:10459000B4CF8430910509F4BEC00CF469C005970E
:1045A00009F4F5C0AACF8D818E3709F0A6CFD701C7
:1045B00052969C928E9251978C9353968D919D9189
:1045C0000D90BC91A02D0196A11DB11DF701838B0B
:1045D000948BA58BB68B708A67868FCF8D818E3733
:1045E00009F00BC10188F289E02D8083F701138A5D
:1045F000148A158A168A82E090E0908B8787328A27
:10460000218A7BCFF70183899489A589B689892B73
:104610008A2B8B2B09F0F1C00188F289E02DCF01A4
:104620000196D70152969C938E9351978D818083EA
:1046300053968D919D910D90BC91A02D0196A11D39
:10464000B11DF701838B948BA58BB68B0197A105C8
:10465000B10509F052CF83E090E0908B8787AE815F
:10466000BF81B28BA18B138A148A158A168A45CF13
:10467000F70183899489A589B6890497A105B105B5
:1046800008F0BBC00188F289E02DCF010196D70167
:1046900052969C938E9351978D81808353968D91E2
:1046A0009D910D90BC91A02D0196A11DB11DF7010A
:1046B000838B948BA58BB68B0497A105B10509F06C
:1046C0001CCFD6018C915381448135812681811183
:1046D00003C0C901DA0104C0852F942FA32FB22F84
:1046E000F70183839483A583B683138A148A158A7A
:1046F000168A892B8A2B8B2B49F084E090E0908BD3
:10470000878787819085928B818BF7CE508A4786E9
:10471000B28AA18AF2CEF7014389548965897689E4
:1047200083819481A581B681481759076A077B0761
:1047300008F063C00188F289E02DCF010196D7010E
:1047400052969C938E9351978D81808353968D9131
:104750009D910D90BC91A02D0196A11DB11DF70159
:10476000838B948BA58BB68B438154816581768135
:1047700084179507A607B70709F0BFCE508A47866A
:10478000B28AA18A138A148A158A168AB6CEF701CC
:1047900083899489A589B6890297A105B10568F531
:1047A0002D81233051F50188F289E02DCF0101964A
:1047B000D70152969C938E935197208353968D9157
:1047C0009D910D90BC91A02D0196A11DB11DF701E9
:1047D000838B948BA58BB68B0297A105B10509F04D
:1047E0008CCE86E090E0908B8787128A118A138A9C
:1047F000148A158A168A80E006C0F701128A118A87
:10480000108A178681E027960FB6F894DEBF0FBE98
:10481000CDBFDF91CF911F910F91FF90EF90DF906F
:10482000CF90BF90AF909F908F907F906F905F9050
:104830004F903F902F90089581E080933A07109217
:104840003B078AE397E00895CF92DF92EF92FF92C1
:104850000F931F93CF93DF938C017B016A01FC01BF
:104860008181811120C06CE070E081E090E0C2D7CE
:10487000EC0190933D0780933C070097A1F01A86C6
:104880001B8681E0F8018183B601C70160D499835A
:104890008883E0913C07F0913D07808191810196EA
:1048A00021F4F801118281E001C080E0DF91CF9115
:1048B0001F910F91FF90EF90DF90CF900895CF93CD
:1048C000DF93FC0121812223B1F01182E0913C07AA
:1048D000F0913D078081918131D4EC0180913C07BA
:1048E00090913D07009711F00E94AC2C81E0219639
:1048F00019F080E001C081E0DF91CF910895FC01C3
:104900008181882369F0E0913C07F0913D07808127
:1049100091810E94F71521E0019619F020E001C075
:1049200021E0822F08950F931F93CF93DF931F925F
:104930001F92CDB7DEB78B011A821982DC01119666
:104940008C91811102C081E028C0E0913C07F09178
:104950003D078285882321F081E0FB0180831CC014
:10496000DB011C92BF016E5F7F4F9E012F5F3F4FA7
:1049700048E050E08081918103D4019621F3898140
:104980009A81009749F091E0F8019083E0913C070B
:10499000F0913D078287138680E00F900F90DF91A2
:1049A000CF911F910F9108958F929F92AF92BF92D6
:1049B000CF92DF92EF92FF920F931F93CF93DF93EB
:1049C0005B0169017A01F80110821182128213825F
:1049D000FC018181811102C081E032C0C0913C079D
:1049E000D0913D078A858823F1F090E04901821734
:1049F000930708F44C016B8570E06E5F7F4F6C0F7E
:104A00007D1FA401C5010E943B2D8A8588198A87D4
:104A10008B85880D8B87A80CB91CA70196012819D6
:104A2000390941095109B501888199810E943B16D4
:104A3000019691F2F801C082D182E282F38280E095
:104A4000DF91CF911F910F91FF90EF90DF90CF906A
:104A5000BF90AF909F908F900895CF93DF93FB010D
:104A600020813181DC016D917C91DA01A85BBF4F1F
:104A7000672B19F42115310531F0E901C85BDF4FCF
:104A80005983488303C051834083FC015183408391
:104A90001D921C92DF91CF910895FC01DB018D9155
:104AA0009C91208131812115310519F4009709F479
:104AB0000895D901A85BBF4F8D919C911197918367
:104AC0008083892B19F4FB01118210821D921C92A4
:104AD000C901089520914507309146078091470705
:104AE00090914807892B19F481E0232B09F080E08D
:104AF000089520914107309142078091430790919A
:104B00004407892B19F481E0232B09F080E00895F4
:104B1000CF93DF93C5E0D0E06AE470E081E090E0FD
:104B200069D6009751F0AC0165E477E087E497E03F
:104B300094DF219789F780E001C081E0DF91CF9178
:104B400008957F928F929F92AF92BF92CF92DF9201
:104B5000EF92FF920F931F93CF93DF931F921F92B9
:104B6000CDB7DEB75C01BC0182E697E07ADC782E37
:104B7000811141C080916407823019F41092490775
:104B80003AC0C0906507D0906607E0906707F09044
:104B900068078090690790906A0765E477E087E48A
:104BA00097E07BDF8C01A601B40165D7F801E05CDA
:104BB000FF4FEE24D7FCE094FE2CC082D182E2822B
:104BC000F38234961082118212821382A80161E46A
:104BD00077E083E497E041DF7DDF81110CC002E0E4
:104BE00010E09E012F5F3F4F40E050E060E070E03A
:104BF000C50112D0782E872D0F900F90DF91CF91A5
:104C00001F910F91FF90EF90DF90CF90BF90AF90EA
:104C10009F908F907F9008958F929F92AF92BF92B6
:104C2000CF92DF92EF92FF920F931F93CF93DF9378
:104C300000D0CDB7DEB76C014B0158017A0143318A
:104C4000510518F082E1E82EF12CF901F182E082A1
:104C500000E010E080914907882379F1F2E0AF1677
:104C6000B10459F11B82BE016D5F7F4FC6015BDE4F
:104C700081113BC08B81811104C02CDF811106C0E2
:104C8000E7CFC6015EDF8823C1F32FC0083C1105C2
:104C90001CF40F5F1F4FDECF3BDF811126C002E007
:104CA00010E09E012F5F3F4F40E050E060E070E079
:104CB000C601B2DF882361F218C0C701A0E0B0E0EE
:104CC00080934D0790934E07A0934F07B0935007E2
:104CD000A0924C07A701B40180915107909152070F
:104CE000CAD6B6018AE497E00BDB0F900F900F90C5
:104CF000DF91CF911F910F91FF90EF90DF90CF90B8
:104D0000BF90AF909F908F900895CF93E3DE811175
:104D100007C065E477E087E497E0BFDE1DD6F6CFF5
:104D2000E8DE811107C061E477E083E497E0B5DE57
:104D300013D6F6CF8091690790916A070DD6C8E126
:104D4000E2E6F7E0DF018C2F1D928A95E9F780916A
:104D500051079091520700D6EAE4F7E0DF011D9277
:104D6000CA95E9F710924207109241071092440742
:104D70001092430710924607109245071092480779
:104D80001092470710924907CF91089580E0089547
:104D900021E0FC0181819281892B09F420E0FB0153
:104DA000208380E008951092490708950F931F9380
:104DB000CF93DF93EC0109811A810115110529F0C8
:104DC000A4DFC8017CDD1A821982DF91CF911F9187
:104DD0000F9108958F929F92AF92BF92CF92DF92E0
:104DE000EF92FF920F931F93CF93DF938C015B01A0
:104DF0004A01C42FD92DEE24E394F12CEA14FB04CC
:104E000084F4FFEFEF1AFF0A8A819B81009739F043
:104E10006FED73E040D6892B11F41B821A82229623
:104E2000EDCF81E0F801808307DDEC01009799F177
:104E30006CDF80E490E0F8D49093520780935107A0
:104E4000892B39F190E4C92ED12CE12CF12CC092A0
:104E50005307D0925407E0925507F092560780E42A
:104E600090E0E2D490936A0780936907892B89F0D8
:104E7000C0926B07D0926C07E0926D07F0926E07BC
:104E800047DE811106C0A401B501CE01DDDC882317
:104E900011F0C0E0D0E0F801D283C183CD2B19F02E
:104EA00080E090E002C087EB93E0DF91CF911F910B
:104EB0000F91FF90EF90DF90CF90BF90AF909F90B9
:104EC0008F900895FC01808108958EE397E0089506
:104ED00008956F927F928F929F92AF92BF92CF92DE
:104EE000DF92EF92FF920F931F93CF93DF931F9266
:104EF0001F92CDB7DEB77C015B018A014901FC013D
:104F0000C180D280F6DD8823C9F01982BE016F5FAF
:104F10007F4FC60108DD782E811188C089818823E2
:104F200039F0C6010EDE811107C0E3DD882331F0C0
:104F3000F801118210827AC0782E78C0F701C18002
:104F4000D2808091430790914407009731F4C601C5
:104F5000F8DD782E8823A9F369C07C01F4E4EF0E14
:104F6000F11CF70140815181628173813C01F0E4C1
:104F70006F0E711CF30120813181241B350BF80168
:104F8000A216B3061CF03183208302C0B182A08236
:104F9000BC01640F751FF80140815181C4016BD5BC
:104FA000F80180819181AA2797FDA095BA2FF7017A
:104FB0004081518162817381840F951FA61FB71FA5
:104FC00080839183A283B383F30140815181628105
:104FD000738184179507A607B70739F57BDD182F6E
:104FE000F3011082118212821382F7011082118262
:104FF0001282138261E477E083E497E04EDDAC0136
:1050000065E477E087E497E028DD112371F002E0A2
:1050100010E09E012F5F3F4F40E050E060E070E005
:10502000C601FADD782E811101C0712C872D0F90F9
:105030000F90DF91CF911F910F91FF90EF90DF9034
:10504000CF90BF90AF909F908F907F906F9008957A
:105050005F926F927F928F929F92AF92BF92CF9208
:10506000DF92EF92FF920F931F93CF93DF931F92E4
:105070001F92CDB7DEB76B013A015901FC01818067
:1050800092801A821982E12CF12C55245394EC144D
:10509000FD04B4F401E010E09E012F5F3F4FA60134
:1050A0004E195F09B3016E0D7F1DC401B5DD81117D
:1050B0000BC089819A81E80EF91E50924907E7CF0B
:1050C00080E0F501D182C0820F900F90DF91CF91E7
:1050D0001F910F91FF90EF90DF90CF90BF90AF9016
:1050E0009F908F907F906F905F9008950895CF93D9
:1050F000DF93EC0189819A81E2DB1A821982DF91C8
:10510000CF9108950F931F93CF93DF93EA01890105
:10511000F894E091B904F091BA040280F381E02D93
:1051200089EB94E019957894F801D183C08380E0ED
:1051300090E0DF91CF911F910F91089568EE73E099
:1051400080E090E00E945D1A80E090E008950E9467
:10515000821A26E040E052EC61E070E089EB94E0D6
:105160000E94791C89EB94E00E94A61B892B29F0F0
:1051700089EB94E00E94BF1BF5CF80E090E008959A
:10518000CF92DF92EF92FF920F931F93CF93DF9313
:105190001F921F92CDB7DEB77A016901F901118222
:1051A000108289EB94E069837A830E94A61B69814F
:1051B0007A81892BC9F08B01F601808191818E154E
:1051C0009F0590F489EB94E00E94BF1B8F3FFFEF97
:1051D0009F0791F3F80181938F01F60180819181FE
:1051E000019691838083E8CF80E090E00F900F904C
:1051F000DF91CF911F910F91FF90EF90DF90CF90B3
:10520000089520917A0781E0820F80937A07222304
:1052100049F081E090E090937C0780937B07209396
:105220007A07089578940E945601F89480917A073D
:10523000815080937A070C94E715FF920F931F9388
:10524000CF93DF931F921F92CDB7DEB781E08A83A1
:105250000E94821A0E94FB20E0915403F0915503B2
:105260001182108260E070E080E090E00E94F01512
:105270000E94660378940091540310915503C8016D
:1052800082960E94EF1581E090E00E94EB15198252
:10529000AE014F5F5F4F61E070E0F8018281938162
:1052A0000E9495158981882319F081E0F80186A371
:1052B0000E94F615F8940E942921F80180819181BD
:1052C000892B19F481E096A1911180E08A8378946A
:1052D0007894FF24F3948A818823D9F01982AE014F
:1052E0004F5F5F4F61E070E0F801828193810E941F
:1052F000D1158981882311F0F801F6A2F801808187
:105300009181892B19F481E096A1911180E08A8323
:10531000E2CF81E090E00E94ED150E942B04F8940A
:1053200080E090E00F900F90DF91CF911F910F914F
:10533000FF9008955058BB27AA270ED075C166D19B
:1053400030F06BD120F031F49F3F11F41EF45BC1BB
:105350000EF4E095E7FB51C1E92F77D180F3BA173E
:10536000620773078407950718F071F49EF58FC1E3
:105370000EF4E0950B2EBA2FA02D0B01B901900170
:105380000C01CA01A0011124FF27591B99F0593FB4
:1053900050F4503E68F11A16F040A22F232F342FFC
:1053A0004427585FF3CF469537952795A795F0404A
:1053B0005395C9F77EF41F16BA0B620B730B840B5F
:1053C000BAF09150A1F0FF0FBB1F661F771F881F17
:1053D000C2F70EC0BA0F621F731F841F48F487956F
:1053E00077956795B795F7959E3F08F0B3CF93955E
:1053F000880F08F09927EE0F979587950895D9D0D3
:1054000008F481E008950CD00FC107D140F0FED020
:1054100030F021F45F3F19F0F0C0511139C1F3C0F1
:1054200014D198F39923C9F35523B1F3951B550B68
:10543000BB27AA2762177307840738F09F5F5F4F67
:10544000220F331F441FAA1FA9F333D00E2E3AF0A8
:10545000E0E830D091505040E695001CCAF729D0C2
:10546000FE2F27D0660F771F881FBB1F2617370711
:105470004807AB07B0E809F0BB0B802DBF01FF2741
:1054800093585F4F2AF09E3F510568F0B6C000C1A7
:105490005F3FECF3983EDCF3869577956795B7957B
:1054A000F7959F5FC9F7880F911D9695879597F996
:1054B0000895E1E0660F771F881FBB1F621773070F
:1054C0008407BA0720F0621B730B840BBA0BEE1F24
:1054D00088F7E095089504D06894B111D9C0089573
:1054E000BCD088F09F5790F0B92F9927B751A0F002
:1054F000D1F0660F771F881F991F1AF0BA95C9F768
:1055000012C0B13081F0C3D0B1E00895C0C0672FA0
:10551000782F8827B85F39F0B93FCCF38695779517
:105520006795B395D9F73EF4909580957095619500
:105530007F4F8F4F9F4F0895E89409C097FB3EF42B
:1055400090958095709561957F4F8F4F9F4F9923D0
:10555000A9F0F92F96E9BB279395F695879577954E
:105560006795B795F111F8CFFAF4BB0F11F460FF0E
:105570001BC06F5F7F4F8F4F9F4F16C0882311F066
:1055800096E911C0772321F09EE8872F762F05C07A
:10559000662371F096E8862F70E060E02AF09A9515
:1055A000660F771F881FDAF7880F9695879597F90A
:1055B0000895990F0008550FAA0BE0E8FEEF1616A4
:1055C0001706E807F907C0F012161306E407F507F7
:1055D00098F0621B730B840B950B39F40A2661F06B
:1055E000232B242B252B21F408950A2609F4A1400E
:1055F000A6958FEF811D811D089597F99F6780E81B
:1056000070E060E008959FEF80EC089500240A9414
:105610001616170618060906089500240A9412168D
:105620001306140605060895092E0394000C11F4C0
:10563000882352F0BB0F40F4BF2B11F460FF04C06D
:105640006F5F7F4F8F4F9F4F089557FD9058440FC6
:10565000551F59F05F3F71F04795880F97FB991FD1
:1056600061F09F3F79F0879508951216130614068E
:10567000551FF2CF4695F1DF08C01616170618061B
:10568000991FF1CF86957105610508940895E894F6
:10569000BB2766277727CB0197F908958ADF08F49F
:1056A0008FEF08950BD0C0CFB1DF28F0B6DF18F030
:1056B000952309F0A2CFA7CF1124EACFC6DFA0F32C
:1056C000959FD1F3950F50E0551F629FF001729F97
:1056D000BB27F00DB11D639FAA27F00DB11DAA1FB6
:1056E000649F6627B00DA11D661F829F2227B00D03
:1056F000A11D621F739FB00DA11D621F839FA00D8E
:10570000611D221F749F3327A00D611D231F849FDD
:10571000600D211D822F762F6A2F11249F57504034
:105720008AF0E1F088234AF0EE0FFF1FBB1F661FCF
:10573000771F881F91505040A9F79E3F510570F088
:105740005CCFA6CF5F3FECF3983EDCF38695779570
:105750006795B795F795E7959F5FC1F7FE2B880F83
:10576000911D9695879597F90895A1E21A2EAA1B87
:10577000BB1BFD010DC0AA1FBB1FEE1FFF1FA21701
:10578000B307E407F50720F0A21BB30BE40BF50BFE
:10579000661F771F881F991F1A9469F76095709587
:1057A000809590959B01AC01BD01CF010895EE0F4E
:1057B000FF1F0590F491E02D19940DD0A59F900D39
:1057C000B49F900DA49F800D911D11240895079002
:1057D000F691E02D1994A29FB001B39FC001A39F41
:1057E000700D811D1124911DB29F700D811D11241A
:1057F000911D08950F931F93CF93DF93869F800190
:10580000879F100D969F100D1124C8010DD0EC013B
:10581000009721F0A80160E070E036D1CE01DF9161
:10582000CF911F910F910895CF93DF93823091050F
:1058300010F482E090E0E091D007F091D10720E0F1
:1058400030E0A0E0B0E0309739F140815181481755
:105850005907B8F04817590771F48281938110975E
:1058600029F013969C938E9312972CC09093D10796
:105870008093D00727C02115310531F04217530717
:1058800018F0A901DB0101C0EF019A01BD01DF01A0
:105890000280F381E02DD7CF21153105F9F0281BC7
:1058A000390B2430310580F48A819B8161157105A3
:1058B00021F0FB019383828304C09093D1078093EE
:1058C000D007FE01329644C0FE01E20FF31F819320
:1058D000919322503109398328833AC02091CE0711
:1058E0003091CF07232B41F4209102023091030223
:1058F0003093CF072093CE07209100023091010210
:105900002115310541F42DB73EB740910402509165
:105910000502241B350BE091CE07F091CF07E2176B
:10592000F307A0F42E1B3F0B2817390778F0AC01C2
:105930004E5F5F4F2417350748F04E0F5F1F50939F
:10594000CF074093CE078193919302C0E0E0F0E04F
:10595000CF01DF91CF910895CF93DF93009709F4A2
:1059600087C0FC01329713821282C091D007D09178
:10597000D107209781F420813181280F391F809130
:10598000CE079091CF078217930779F5F093CF0751
:10599000E093CE076DC0DE0120E030E0AE17BF0718
:1059A00050F412964D915C9113979D01411551054C
:1059B00009F1DA01F3CFB383A28340815181840FCF
:1059C000951F8A179B0771F48D919C911197840FF5
:1059D000951F02969183808312968D919C911397C7
:1059E000938382832115310529F4F093D107E09345
:1059F000D0073EC0D9011396FC93EE9312974D91B8
:105A00005D91A40FB51FEA17FB0779F4808191819E
:105A1000840F951F0296D90111969C938E938281D3
:105A2000938113969C938E931297E0E0F0E08A8125
:105A30009B81009719F0FE01EC01F9CFCE0102968F
:105A400028813981820F931F2091CE073091CF0793
:105A50002817390769F4309729F41092D10710926A
:105A6000D00702C013821282D093CF07C093CE0713
:105A7000DF91CF910895FB01DC0102C001900D92EE
:105A800041505040D8F70895DC0101C06D9341505A
:105A90005040E0F70895FB01DC018D9101908019E1
:0C5AA0000110D9F3990B0895F894FFCF82
:105AAC000000D20780000100000003000E028A02F1
:105ABC00010000000600A202000000000400B20277
:105ACC0001000000060005002A02A40701000000E6
